{
  "contractName": "SocialMusic",
  "abi": [
    {
      "constant": true,
      "inputs": [
        {
          "name": "",
          "type": "address"
        }
      ],
      "name": "users",
      "outputs": [
        {
          "name": "name",
          "type": "bytes32"
        },
        {
          "name": "age",
          "type": "uint256"
        },
        {
          "name": "state",
          "type": "string"
        }
      ],
      "payable": false,
      "stateMutability": "view",
      "type": "function",
      "signature": "0xa87430ba"
    },
    {
      "constant": false,
      "inputs": [
        {
          "name": "_songName",
          "type": "string"
        }
      ],
      "name": "addSong",
      "outputs": [],
      "payable": false,
      "stateMutability": "nonpayable",
      "type": "function",
      "signature": "0x7f590f5e"
    },
    {
      "constant": false,
      "inputs": [
        {
          "name": "_name",
          "type": "bytes32"
        },
        {
          "name": "_age",
          "type": "uint256"
        },
        {
          "name": "_state",
          "type": "string"
        }
      ],
      "name": "setup",
      "outputs": [],
      "payable": false,
      "stateMutability": "nonpayable",
      "type": "function",
      "signature": "0x996fa3a5"
    },
    {
      "constant": false,
      "inputs": [
        {
          "name": "_user",
          "type": "address"
        }
      ],
      "name": "follow",
      "outputs": [],
      "payable": false,
      "stateMutability": "nonpayable",
      "type": "function",
      "signature": "0x4dbf27cc"
    }
  ],
  "bytecode": "0x608060405234801561001057600080fd5b50610b7b806100206000396000f3fe608060405260043610610062576000357c0100000000000000000000000000000000000000000000000000000000900463ffffffff1680634dbf27cc146100675780637f590f5e146100b8578063996fa3a514610180578063a87430ba1461025c575b600080fd5b34801561007357600080fd5b506100b66004803603602081101561008a57600080fd5b81019080803573ffffffffffffffffffffffffffffffffffffffff169060200190929190505050610334565b005b3480156100c457600080fd5b5061017e600480360360208110156100db57600080fd5b81019080803590602001906401000000008111156100f857600080fd5b82018360208201111561010a57600080fd5b8035906020019184600183028401116401000000008311171561012c57600080fd5b91908080601f016020809104026020016040519081016040528093929190818152602001838380828437600081840152601f19601f820116905080830192505050505050509192919290505050610418565b005b34801561018c57600080fd5b5061025a600480360360608110156101a357600080fd5b810190808035906020019092919080359060200190929190803590602001906401000000008111156101d457600080fd5b8201836020820111156101e657600080fd5b8035906020019184600183028401116401000000008311171561020857600080fd5b91908080601f016020809104026020016040519081016040528093929190818152602001838380828437600081840152601f19601f8201169050808301925050505050505091929192905050506104b7565b005b34801561026857600080fd5b506102ab6004803603602081101561027f57600080fd5b81019080803573ffffffffffffffffffffffffffffffffffffffff169060200190929190505050610794565b6040518084815260200183815260200180602001828103825283818151815260200191508051906020019080838360005b838110156102f75780820151818401526020810190506102dc565b50505050905090810190601f1680156103245780820380516001836020036101000a031916815260200191505b5094505050505060405180910390f35b600073ffffffffffffffffffffffffffffffffffffffff168173ffffffffffffffffffffffffffffffffffffffff161415151561037057600080fd5b6000803373ffffffffffffffffffffffffffffffffffffffff1673ffffffffffffffffffffffffffffffffffffffff1681526020019081526020016000206004018190806001815401808255809150509060018203906000526020600020016000909192909190916101000a81548173ffffffffffffffffffffffffffffffffffffffff021916908373ffffffffffffffffffffffffffffffffffffffff1602179055505050565b6000815111801561042b57506064815111155b151561043657600080fd5b6000803373ffffffffffffffffffffffffffffffffffffffff1673ffffffffffffffffffffffffffffffffffffffff1681526020019081526020016000206003018190806001815401808255809150509060018203906000526020600020016000909192909190915090805190602001906104b2929190610856565b505050565b6000602060ff161115156104ca57600080fd5b6104d26108d6565b60a0604051908101604052808581526020018481526020018381526020016000803373ffffffffffffffffffffffffffffffffffffffff1673ffffffffffffffffffffffffffffffffffffffff168152602001908152602001600020600301805480602002602001604051908101604052809291908181526020016000905b8282101561060d578382906000526020600020018054600181600116156101000203166002900480601f0160208091040260200160405190810160405280929190818152602001828054600181600116156101000203166002900480156105f95780601f106105ce576101008083540402835291602001916105f9565b820191906000526020600020905b8154815290600101906020018083116105dc57829003601f168201915b505050505081526020019060010190610551565b5050505081526020016000803373ffffffffffffffffffffffffffffffffffffffff1673ffffffffffffffffffffffffffffffffffffffff1681526020019081526020016000206004018054806020026020016040519081016040528092919081815260200182805480156106d757602002820191906000526020600020905b8160009054906101000a900473ffffffffffffffffffffffffffffffffffffffff1673ffffffffffffffffffffffffffffffffffffffff168152602001906001019080831161068d575b50505050508152509050806000803373ffffffffffffffffffffffffffffffffffffffff1673ffffffffffffffffffffffffffffffffffffffff16815260200190815260200160002060008201518160000155602082015181600101556040820151816002019080519060200190610750929190610909565b50606082015181600301908051906020019061076d929190610989565b50608082015181600401908051906020019061078a9291906109e9565b5090505050505050565b6000602052806000526040600020600091509050806000015490806001015490806002018054600181600116156101000203166002900480601f01602080910402602001604051908101604052809291908181526020018280546001816001161561010002031660029004801561084c5780601f106108215761010080835404028352916020019161084c565b820191906000526020600020905b81548152906001019060200180831161082f57829003601f168201915b5050505050905083565b828054600181600116156101000203166002900490600052602060002090601f016020900481019282601f1061089757805160ff19168380011785556108c5565b828001600101855582156108c5579182015b828111156108c45782518255916020019190600101906108a9565b5b5090506108d29190610a73565b5090565b60a06040519081016040528060008019168152602001600081526020016060815260200160608152602001606081525090565b828054600181600116156101000203166002900490600052602060002090601f016020900481019282601f1061094a57805160ff1916838001178555610978565b82800160010185558215610978579182015b8281111561097757825182559160200191906001019061095c565b5b5090506109859190610a73565b5090565b8280548282559060005260206000209081019282156109d8579160200282015b828111156109d75782518290805190602001906109c7929190610909565b50916020019190600101906109a9565b5b5090506109e59190610a98565b5090565b828054828255906000526020600020908101928215610a62579160200282015b82811115610a615782518260006101000a81548173ffffffffffffffffffffffffffffffffffffffff021916908373ffffffffffffffffffffffffffffffffffffffff16021790555091602001919060010190610a09565b5b509050610a6f9190610ac4565b5090565b610a9591905b80821115610a91576000816000905550600101610a79565b5090565b90565b610ac191905b80821115610abd5760008181610ab49190610b07565b50600101610a9e565b5090565b90565b610b0491905b80821115610b0057600081816101000a81549073ffffffffffffffffffffffffffffffffffffffff021916905550600101610aca565b5090565b90565b50805460018160011615610100020316600290046000825580601f10610b2d5750610b4c565b601f016020900490600052602060002090810190610b4b9190610a73565b5b5056fea165627a7a72305820da04380a55a054a5d6ef11708880bdbe54b1662f1b2db54fe98783f1be7262570029",
  "source": "pragma solidity 0.5.0;\r\n\r\ncontract SocialMusic {\r\n    struct User {\r\n        bytes32 name;\r\n        uint256 age;\r\n        string state; // A short description of who they are or how they feel\r\n        string[] musicRecommendations;\r\n        address[] following;\r\n    }\r\n    mapping(address => User) public users;\r\n\r\n    // To add a new musical recommendation\r\n    function addSong(string memory _songName) public {\r\n        require(bytes(_songName).length > 0 && bytes(_songName).length <= 100);\r\n        users[msg.sender].musicRecommendations.push(_songName);\r\n    }\r\n\r\n    // To setup user information\r\n    function setup(bytes32 _name, uint256 _age, string memory _state) public {\r\n        require(_name.length > 0);\r\n        User memory newUser = User(_name, _age, _state, users[msg.sender].musicRecommendations, users[msg.sender].following);\r\n        users[msg.sender] = newUser;\r\n    }\r\n\r\n    // To follow new users\r\n    function follow(address _user) public {\r\n        require(_user != address(0));\r\n        users[msg.sender].following.push(_user);\r\n    }\r\n}\r\n",
  "sourcePath": "C:/Users/merun/Desktop/book/dapp/contracts/SocialMusic.sol",
  "compiler": {
    "name": "solc",
    "version": "0.5.0+commit.1d4f565a.Emscripten.clang"
  },
  "schemaVersion": "3.0.1",
  "updatedAt": "2019-02-12T08:45:37.950Z",
  "devdoc": {
    "methods": {}
  },
  "userdoc": {
    "methods": {}
  }
}